:020000040800F2
:1000000000000220B9020008C1020008C502000871
:10001000C9020008CD020008D1020008000000005B
:10002000000000000000000000000000D5020008F1
:10003000D902000800000000DD020008E10200080B
:10004000E5020008E5020008E5020008E5020008F4
:10005000E5020008E5020008E5020008E5020008E4
:10006000E5020008E5020008E5020008E5020008D4
:10007000E5020008E5020008E5020008E5020008C4
:10008000E5020008E5020008E5020008E5020008B4
:10009000E5020008E5020008E5020008E5020008A4
:1000A000E5020008E5020008E5020008E502000894
:1000B000E5020008E5020008E5020008E502000884
:1000C000E5020008E5020008E5020008E502000874
:1000D000E5020008E5020008E5020008E502000864
:1000E000E5020008E5020008E5020008E502000854
:1000F000E5020008E5020008E5020008E502000844
:10010000E5020008E5020008E5020008E502000833
:10011000E5020008E5020008E5020008E502000823
:10012000E5020008E5020008E5020008E502000813
:10013000E50200080000000000000000E5020008E1
:10014000E5020008E5020008E5020008E5020008F3
:10015000E5020008E5020008E5020008E5020008E3
:10016000E5020008E5020008E5020008E5020008D3
:10017000E5020008E50200080000000000000000A1
:10018000E5020008E502000800B583B000F01AFAA5
:10019000384B394A1360394A136039490CE00A6810
:1001A0004B6801F10C04886803E01168196004339E
:1001B00004329842F9D82146324B9942EFD32E4B64
:1001C0001A68314B9A4204D12C4B1A682F4B9A4231
:1001D00000D0FEE7274B2E4A13602E4A13602E4BA9
:1001E0000AE0194651F8082B5B6802E00020106015
:1001F00004329A42FAD30B46284A9342F1D3244B55
:100200001B6813B9234B1B6803B1FEE700F0FEF92E
:1002100001A8694600F0CAF9214C224B1C1BA4100E
:10022000002504E01E4B53F8253098470135AC42B9
:10023000F8DC1D4C1D4B1C1BA410002504E01A4BC0
:1002400053F8253098470135AC42F8DC0198009905
:1002500000F0E0F90546164C164B1C1BA41004E0F8
:10026000013C134B53F824309847002CF8DC284607
:1002700000F074F9BABADECA000000207000002055
:10028000E8020008000300087856341232547698C9
:1002900074000020940000200003000810030008F0
:1002A00010030008100300081003000810030008E2
:1002B000100300081003000808B5FFF765FF00BF32
:1002C000FEE700BFFEE700BFFEE700BFFEE700BF9E
:1002D000FEE700BFFEE700BFFEE700BFFEE700BF8E
:0802E000704700BFFEE700BFFC
:1002E800E40800080000002074000020E40800086A
:1002F800000000100000001074000020980000208A
:080308000000001000000010CD
:100310002DE9F04105460E46464B984223D003F5A1
:10032000806398421FD003F5806398421BD003F589
:100330008063984217D003F58063984213D003F589
:10034000806398420FD003F5806398420BD003F589
:100350008063984207D003F58063984203D0364803
:10036000C22100F02BF933681BB93348C32100F0D8
:1003700025F93379032B03D92F48C42100F01EF946
:10038000F379022B03D92C48C52100F017F900247A
:100390004CE00123A34032681A409A4245D12B68B1
:1003A0004FEA4408032707FA08F7FF433B402B6056
:1003B0002A68337903FA08F313432B603379013B3E
:1003C000DBB2012B23D87379032B03D91A48D72129
:1003D00000F0F4F8AB681F40AF60AA68737903FAC5
:1003E00008F31343AB60B379012B03D91248DE2124
:1003F00000F0E4F86A68A1B201238B4022EA03030B
:100400006B606A68B3798B409BB213436B60EA6898
:10041000A1B2490003238B4022EA0303EB60EA68A0
:10042000F37903FA08F31343EB6001340F2CB0D9CE
:10043000BDE8F081000002408808000870B504465D
:100440000D461646304B984224D003F580639842FF
:1004500020D003F5806398421CD003F58063984256
:1004600018D003F58063984214D003F58063984256
:1004700010D003F5806398420CD003F58063984256
:1004800008D003F58063984204D0204840F2B511AB
:1004900000F094F86B1E9BB2012B28D9042D26D0B6
:1004A000082D24D0102D22D0202D20D0402D1ED05C
:1004B000802D1CD0B5F5807F19D0B5F5007F16D002
:1004C000B5F5806F13D0B5F5006F10D0B5F5805F2E
:1004D0000DD0B5F5005F0AD0B5F5804F07D0B5F562
:1004E000004F04D009484FF4DB7100F067F8012E8B
:1004F00004D9064840F2B71100F060F80EB1258328
:1005000070BD658370BD00BF000002408808000810
:1005100038B504460D460E4B034003B920B90D48CB
:1005200040F26D4100F04AF8012D04D9094840F22B
:100530006F4100F043F825B1074B1A6B14431C635D
:1005400038BD054A136B23EA0404146338BD00BFA9
:1005500000EE8B81B408000800380240FEE700BFBF
:1005600008B50120FFF7FAFF08B50D4B1B6813B95A
:100570000C4A0B4B1A600A4B1A68C31C23F0030386
:10058000134409498B4206D900F00AF90C23036091
:100590004FF0FF3008BD02490B60104608BD00BF98
:1005A000780000209800002000FC01200123036057
:1005B000014B0B60704700BF0400002008B5FFF737
:1005C000CFFF00BF08B500F001F808BD0C4B1A685A
:1005D00042F001021A60002199601A6822F08472C8
:1005E00022F480321A60074A5A601A6822F4802284
:1005F0001A60D9604FF00062034B9A60704700BFE9
:10060000003802401030002400ED00E008B5FFF78C
:10061000DDFF08BD08B50C2000F0A8F80446002155
:100620000122134600F09CF8014B1C60FEE700BF5E
:100630008000002070B582B0044616461D46022395
:10064000037001238DF80430082946D8DFE801F053
:10065000050C131A21282F363D0001200146FFF713
:1006600057FF364B63603AE002200121FFF750FF4D
:10067000334B636033E004200121FFF749FF314B26
:1006800063602CE008200121FFF742FF2E4B6360DE
:1006900025E010200121FFF73BFF2C4B63601EE09B
:1006A00020200121FFF734FF294B636017E0402031
:1006B0000121FFF72DFF274B636010E0802001210F
:1006C000FFF726FF244B636009E04FF4807001219F
:1006D000FFF71EFF214B636001E0062303700F2E1E
:1006E00005D80123B3409BB22381009301E0062388
:1006F000237015B1012D05D009E0002363708DF83A
:10070000063006E0012363708DF8063001E0062311
:1007100023702378022B0DD100238DF807308DF83C
:10072000053060686946FFF7F3FD606821892A4655
:10073000FFF784FE207802B070BD00BF00000240C9
:100740000004024000080240000C02400010024079
:100750000014024000180240001C02400020024029
:1007600010B50446FFF766FF204610BD10B50028FF
:1007700014BF04460124204600F018F830B900F0F8
:1007800007F808B9FFF7ECFE8047F4E710BD00005A
:10079000024B1868BFF35F8F704700BF84000020D2
:1007A000014B1868704700BF6C000020024B0146E7
:1007B000186800F003B800BF6C00002070B5CC1CB6
:1007C00024F0030408340C2C38BF0C24002C0646FB
:1007D00003DA0C233360002070BD8C42F9D3204A29
:1007E000136810461946A1B10A68121B0ED40B2AD1
:1007F00003D90A608B188C501FE08B420DBF5A68DA
:100800004A685A60026018BF0B4616E00B464968FA
:10081000E9E7144D2B681BB9304600F025F8286035
:100820003046214600F020F8421C0346D1D0C51CBA
:1008300025F0030585420AD11C6003F10B001A1D47
:1008400020F00700821A0AD05142995070BD3046FC
:10085000E91A00F009F80130BBD02B46ECE770BD77
:100860008C0000208800002038B5064C0023054687
:1008700008462360FFF778FE431C02D1236803B1CA
:100880002B6038BD900000202E2E2F737973746575
:100890006D2F7372632F73746D333266342D7370E2
:1008A0006C2F73746D3332663478785F6770696F5C
:1008B0002E6300002E2E2F73797374656D2F737263
:1008C000632F73746D333266342D73706C2F7374B1
:1008D0006D3332663478785F7263632E6300000094
:0208E0004300D3
:1008E400785634127C000020000000000000000054
:1008F40000000000000000000000000000000000F4
:10090400000000000000000000000000E0080008F3
:1009140000000000000000000000000000000000D3
:1009240000000000000000000000000000000000C3
:1009340000000000000000000000000000000000B3
:100944000000000000000000000000000C00002077
:04095400325476980B
:040000050800018965
:00000001FF
